:100000000C9484010C94AC010C94AC010C940F067C
:100010000C940F060C940F060C94AC010C94AC01DC
:100020000C94AC010C94AC010C94AC010C94AC019C
:100030000C94AC010C94AC010C94AC010C94AC018C
:100040000C94C5050C94AC010C9493050C946D05AF
:100050000C94AC010C94AC010C94AC010C94AC016C
:100060000C94AC010C94AC010000000800020100EB
:100070000003040700000000000000004142434468
:1000800045464748494A4B4C4D4E4F5051525354A8
:1000900055565758595A6162636465666768696A5C
:1000A0006B6C6D6E6F707172737475767778797A28
:1000B000303132333435363738392B2F0052096A14
:1000C000D53036A538BF40A39E81F3D7FB7CE339FA
:1000D000829B2FFF87348E4344C4DEE9CB547B944C
:1000E00032A6C2233DEE4C950B42FAC34E082EA118
:1000F0006628D924B2765BA2496D8BD12572F8F6B9
:100100006486689816D4A45CCC5D65B6926C704821
:1001100050FDEDB9DA5E154657A78D9D8490D8AB9A
:10012000008CBCD30AF7E45805B8B34506D02C1EA2
:100130008FCA3F0F02C1AFBD0301138A6B3A911101
:10014000414F67DCEA97F2CFCEF0B4E67396AC7419
:1001500022E7AD3585E2F937E81C75DF6E47F11A05
:10016000711D29C5896FB7620EAA18BE1BFC563EC9
:100170004BC6D279209ADBC0FE78CD5AF41FDDA899
:10018000338807C731B11210592780EC5F60517F67
:10019000A919B54A0D2DE57A9F93C99CEFA0E03BC4
:1001A0004DAE2AF5B0C8EBBB3C83539961172B04C5
:1001B0007EBA77D626E169146355210C7D637C777E
:1001C0007BF26B6FC53001672BFED7AB76CA82C955
:1001D0007DFA5947F0ADD4A2AF9CA472C0B7FD938D
:1001E00026363FF7CC34A5E5F171D8311504C72385
:1001F000C31896059A071280E2EB27B27509832C83
:100200001A1B6E5AA0523BD6B329E32F8453D10058
:10021000ED20FCB15B6ACBBE394A4C58CFD0EFAA77
:10022000FB434D338545F9027F503C9FA851A340C5
:100230008F929D38F5BCB6DA2110FFF3D2CD0C13A6
:10024000EC5F974417C4A77E3D645D197360814FCE
:10025000DC222A908846EEB814DE5E0BDBE0323AF0
:100260000A4906245CC2D3AC629195E479E7C837A9
:100270006D8DD54EA96C56F4EA657AAE08BA78252C
:100280002E1CA6B4C6E8DD741F4BBD8B8A703EB52C
:10029000664803F60E613557B986C11D9EE1F89890
:1002A0001169D98E949B1E87E9CE5528DF8CA189D0
:1002B0000DBFE6426841992D0FB054BB16000000F7
:1002C0000023002600290000000000240027002A47
:1002D0000000000000250028002B00040404040492
:1002E00004040402020202020203030303030301E3
:1002F00002040810204080010204081020010204BA
:1003000008102000D3069A0F11241FBECFEFD8E0AB
:10031000DEBFCDBF11E0A0E0B1E0E0E8F1E202C055
:1003200005900D92A43BB107D9F725E0A4EBB1E00D
:1003300001C01D92AE35B207E1F711E0C3E8D1E08C
:1003400004C02197FE010E949D10C238D107C9F751
:100350000E9417080C94B3100C940000DB01FC0100
:10036000242F3C91308311963C9111973183129642
:100370003C911297328313963C9113973383245008
:1003800014963496243068F72CEF240F2695269582
:1003900030E02F5F3F4F220F331F220F331F437078
:1003A000DB01A20FB31FFC01E20FF31F415018F055
:1003B0008D918193FBCF08954F925F927F928F92A0
:1003C0009F92AF92BF92CF92DF92EF92FF920F93E4
:1003D0001F93CF93DF9300D000D0CDB7DEB780322C
:1003E000910509F499C0E8F48031910531F14897FD
:1003F00009F48CC0109221048FEF0F900F900F9092
:100400000F90DF91CF911F910F91FF90EF90DF90B0
:10041000CF90BF90AF909F908F907F905F904F90C4
:100420000895803C910509F471C0811521E092077F
:1004300009F472C080389105E9F68AE080932104BE
:1004400000E110E0F0902104F394F29480EFF822A0
:10045000E02E402F62E371E084E294E00E94AE015E
:10046000B02E902EAA24A394BE016B5F7F4F9BE118
:10047000892EBF1408F06FC04B2D50E0FA01E05EEA
:10048000FB4FCE010196DC0121912D93A617B707F2
:10049000D9F7B91049C029819B2C9E0CEA81F0E064
:1004A000E354FE4FE491EA25E983EB81F0E0E35465
:1004B000FE4FE491EA83EC81F0E0E354FE4FE491D7
:1004C000EB83E22FF0E0E354FE4FE491EC83A7FED0
:1004D00029C0AA0CA8249A012C5D3B4F29012B2D81
:1004E0002E1930E0FC017190CF016201C41AD50AC7
:1004F000C20ED31EF601D080D724F201D1922F0173
:100500008A179B0779F7F4E0BF0EB3CF8CE0809396
:10051000210408E110E096CF8EE08093210400E2F0
:1005200010E090CFAA0CD7CF00321105A1F62B2DE9
:100530002F71203181F69C01F901D1909F01ED2DA1
:10054000F0E0E354FE4FD490F9013197D0822A179E
:100550003B0791F7C0CF80E050CFAF92BF92CF92D0
:10056000DF92EF92FF920F931F93CF93DF936C0173
:100570007B018B01040F151FEB015E01AE18BF0854
:10058000C017D10759F06991D601ED91FC91019006
:10059000F081E02DC6010995892B79F7C501DF911E
:1005A000CF911F910F91FF90EF90DF90CF90BF9070
:1005B000AF900895FC01538D448D252F30E0842F9A
:1005C00090E0821B930B541710F0CF96089501977B
:1005D0000895FC01918D828D981761F0A28DAE0F68
:1005E000BF2FB11D5D968C91928D9F5F9F73928FEF
:1005F00090E008958FEF9FEF0895FC01918D828D1B
:10060000981731F0828DE80FF11D858D90E00895E7
:100610008FEF9FEF0895FC01918D228D892F90E03F
:10062000805C9F4F821B91098F739927089584E8FE
:1006300093E00E940B0321E0892B09F420E0822F34
:10064000089580E090E0892B29F00E941703811122
:100650000C9400000895FC01A48DA80FB92FB11DC2
:10066000A35ABF4F2C91848D90E001968F739927E8
:10067000848FA689B7892C93A089B1898C918370C6
:1006800080648C93938D848D981306C00288F389BF
:10069000E02D80818F7D80830895EF92FF920F93EC
:1006A0001F93CF93DF93EC0181E0888F9B8D8C8D1E
:1006B00098131AC0E889F989808185FF15C09FB712
:1006C000F894EE89FF896083E889F98980818370D5
:1006D000806480839FBF81E090E0DF91CF911F9184
:1006E0000F91FF90EF900895F62E0B8D10E00F5FA5
:1006F0001F4F0F731127E02E8C8D8E110CC00FB67B
:1007000007FCFACFE889F989808185FFF5CFCE0112
:100710000E942B03F1CFEB8DEC0FFD2FF11DE35A5F
:10072000FF4FF0829FB7F8940B8FEA89FB89808195
:100730008062CFCFCF93DF93EC01888D8823B9F00F
:10074000AA89BB89E889F9898C9185FD03C08081DC
:1007500086FD0DC00FB607FCF7CF8C9185FFF2CF59
:10076000808185FFEDCFCE010E942B03E9CFDF9181
:10077000CF9108953FB7F8948091F5019091F601DB
:10078000A091F701B091F80126B5A89B05C02F3FB5
:1007900019F00196A11DB11D3FBFBA2FA92F982FA7
:1007A0008827BC01CD01620F711D811D911D42E0A2
:1007B000660F771F881F991F4A95D1F708952091DA
:1007C000FB013091FC012817390771F49091F90170
:1007D0008091FA01981741F0E091F901F0E0EC54B2
:1007E000FE4F808190E008958FEF9FEF0895089568
:1007F000EF92FF920F931F93CF93DF93DC015C96F0
:10080000ED90FC905D97E114F10479F481E090E0C3
:1008100013969C938E93129790E080E0DF91CF9196
:100820001F910F91FF90EF9008955196ED91FC91DB
:10083000529750968C915097982F90950FB75E963F
:100840002C915E97122F127021FD6095F8942081F3
:10085000112319F1282B2083E7012197F1F728E0D4
:10086000462F50E0308160FF1AC0382B3083E701FB
:100870002197F1F7BA0175956795215089F71123F2
:1008800081F08081892380830FBF5C968D919C913C
:100890000197F1F781E090E0C1CF2923DCCF392324
:1008A000E5CF9081892BEFCF2091FB013091FC01A6
:1008B0002817390771F48091FA012091F90190E02D
:1008C000805C9F4F821B910960E470E00E9475106C
:1008D000089590E080E008952091FB013091FC01A3
:1008E00028173907B9F49091F9018091FA01981706
:1008F00089F0E091F901F0E0EC54FE4F8081209105
:10090000F90130E02F5F3F4F2F7333272093F90118
:1009100090E008958FEF9FEF089590E080E00895B4
:10092000982F8FEB890F8A31B0F08FE9890F8A31C8
:1009300018F489EB890F089580ED890F8A3010F43F
:1009400084E0F8CF9B3221F09F3221F08FEF0895A1
:100950008EE308958FE30895FC01DB0111962C913D
:10096000119730E084E0359527958A95E1F723705B
:100970008C91880F880F280F208312962C91129744
:1009800030E035952795359527952F7011968C91E8
:10099000119730E1839FC0011124280F2183129603
:1009A0008C91129790E4899F9001112413968C9159
:1009B000820F82830895DC01FB01808186958695F4
:1009C0008C93208180E1289F9001112420738181E4
:1009D00082958F70280F11962C931197218184E0B6
:1009E000289F900111242C7382818295869586958B
:1009F0008370280F12962C93129782818F7313960F
:100A00008C930895CF93DF93FC01EB01DA019C01F5
:100A1000205F3F4F88819C9189278083898111962F
:100A20009C911197892781838A8112969C911297B4
:100A3000892782838B8113969C91139789278383BF
:100A4000349624961496E217F30721F7DF91CF919D
:100A50000895FC01DB019C01205F3F4F80819C9148
:100A600089278083818111969C91119789278183A1
:100A7000828112969C911297892782838381139693
:100A80009C9113978927838334961496E217F30772
:100A900029F70895FB0101900020E9F73197AF0194
:100AA000461B570BDC01ED91FC910280F381E02D98
:100AB00009940F931F93CF93DF93EC010E944A0593
:100AC0008C016AE771E0CE010E944A05800F911FF8
:100AD000DF91CF911F910F9108951F920F920FB642
:100AE0000F9211242F933F934F935F936F937F93B4
:100AF0008F939F93AF93BF93EF93FF9384E893E01B
:100B00000E942B03FF91EF91BF91AF919F918F9125
:100B10007F916F915F914F913F912F910F900FBEF9
:100B20000F901F9018951F920F920FB60F921124DD
:100B30002F938F939F93EF93FF93E0919403F09102
:100B400095038081E0919A03F0919B0382FD1BC085
:100B5000908180919D038F5F8F7320919E038217F8
:100B600041F0E0919D03F0E0EC57FC4F958F8093AE
:100B70009D03FF91EF919F918F912F910F900FBE49
:100B80000F901F9018958081F4CF1F920F920FB68F
:100B90000F9211242F933F938F939F93AF93BF9303
:100BA0008091FD019091FE01A091FF01B0910002A2
:100BB0003091F40123E0230F2D3758F50196A11D44
:100BC000B11D2093F4018093FD019093FE01A09349
:100BD000FF01B09300028091F5019091F601A09180
:100BE000F701B091F8010196A11DB11D8093F501A7
:100BF0009093F601A093F701B093F801BF91AF91E4
:100C00009F918F913F912F910F900FBE0F901F904A
:100C1000189526E8230F0296A11DB11DD2CF1F9271
:100C20000F920FB60F9211242F933F934F935F9320
:100C30006F937F938F939F93AF93BF93EF93FF93A4
:100C4000E091FB01F091FC01309749F0A685B78552
:100C50008585968D91FF14C09C918923A1F4FF9105
:100C6000EF91BF91AF919F918F917F916F915F9124
:100C70004F913F912F910F900FBE0F901F9018959D
:100C80009C91892361F7A389B4899C91858980957A
:100C900089238C93868997890197F1F7608D718DEF
:100CA000A685B785558538E020E0CB010197F1F79F
:100CB000822F90E095958795282F4C91452309F038
:100CC0002068315091F7868D81FD20958091FA0141
:100CD00090E001968F7399273091F901381799F0B8
:100CE000A091FA01B0E0AC54BE4F2C938093FA016E
:100CF000828D938D0197F1F7A389B4898C919589A1
:100D0000892B8C93ACCF868D8160868FF1CF90E05C
:100D1000FC01E859FF4F2491FC01E151FD4F349152
:100D2000FC01E552FD4FE491EE23C9F0222339F096
:100D3000233001F1A8F4213019F1223029F1F0E03B
:100D4000EE0FFF1FEF52FD4FA591B4918FB7F894AE
:100D5000EC91611126C030953E233C938FBF0895DE
:100D60002730A9F02830C9F0243049F7809180005D
:100D70008F7D03C0809180008F7780938000DFCFCC
:100D800084B58F7784BDDBCF84B58F7DFBCF809119
:100D9000B0008F778093B000D2CF8091B0008F7D6C
:100DA000F9CF3E2BDACFEF92FF920F931F93CF93A1
:100DB000DF93CDB7DEB728970FB6F894DEBF0FBE2E
:100DC000CDBF109287031092860388EE93E0A0E0D7
:100DD000B0E08093880390938903A0938A03B09333
:100DE0008B032AE531E0309385032093840325ECBF
:100DF00030E0309391032093900324EC30E0309363
:100E000093032093920320EC30E0309395032093DA
:100E1000940321EC30E0309397032093960322EC67
:100E200030E0309399032093980326EC30E0309320
:100E30009B0320939A0310929D0310929E0310929D
:100E40009F031092A00310924205109241058093D7
:100E5000430590934405A0934505B09346058CE661
:100E600091E09093400580933F05109256051092B3
:100E70005505109258051092570510925A05109278
:100E8000590510925C0510925B0560915D056E7FBF
:100E90006D7F60935D056695617081E068278BE0EA
:100EA0000E9487064AEF52E0FA01649186EE92E0D2
:100EB000FC012491222399F030E0220F331FF90125
:100EC000E953FD4FA591B491F901EF52FD4F2591E2
:100ED00034912FB7F8943C91632B6C932FBFFA0198
:100EE000449140934F05FC018491E82FF0E0EE0F10
:100EF000FF1FEF52FD4F8591949190935105809380
:100F0000500559EFE52E52E0F52EF701249105EE3C
:100F100012E0F80184918823C9F090E0880F991FAE
:100F2000FC01E953FD4FA591B491FC01EF52FD4F37
:100F3000459154913FB7F8949C91822F80959823C6
:100F40009C93DA019C9189238C933FBF80915D052E
:100F500081FD04C061E08AE00E9487068AE08093F8
:100F60004B05F701E490E0924C05F8010491E02F65
:100F7000F0E0EE0FFF1FE354FD4F859194919093A5
:100F80004E0580934D0588E0FE013196DF01982FD4
:100F90001D929A95E9F72CE135E0D901982F1D9221
:100FA0009A95E9F7A4E2B5E001900D928A95E1F7F0
:100FB00082E88093300584E88093310588E8809347
:100FC00032058FE98093330592E99093340594E9D3
:100FD0009093350598E9909336058093370582EA1A
:100FE0008093380584EA8093390588EA80933A052E
:100FF0008FEA80933B0582EB80933C0584EB8093E2
:101000003D0588EB80933E0586E090E090932304B5
:101010008093220428960FB6F894DEBF0FBECDBF92
:10102000DF91CF911F910F91FF90EF900895CF9393
:10103000DF93CDB7DEB7CC58D1090FB6F894DEBF39
:101040000FBECDBF789484B5826084BD84B58160C5
:1010500084BD85B5826085BD85B5816085BD809183
:101060006E00816080936E001092810080918100FB
:1010700082608093810080918100816080938100F3
:10108000809180008160809380008091B1008460B5
:101090008093B1008091B00081608093B000809116
:1010A0007A00846080937A0080917A0082608093D5
:1010B0007A0080917A00816080937A0080917A0032
:1010C000806880937A001092C100E0919403F091BF
:1010D000950382E08083E0919003F0919103108268
:1010E000E0919203F09193038FEC808310929C0324
:1010F000E0919803F091990386E08083E091960354
:10110000F0919703808180618083E0919603F09154
:101110009703808188608083E0919603F091970324
:10112000808180688083E0919603F09197038081AD
:101130008F7D808310925A051092590510925805A0
:101140001092570510925605109255058DE991E0C1
:1011500090935C0580935B0590914B05963108F068
:1011600047C02DEB30E030935605209355052BE911
:1011700031E030935805209357052CE231E030934D
:101180005A05209359052091680084E0983048F072
:1011900031E09E3008F430E081E001C0880F3A95DC
:1011A000EAF7822B809368002DE630E0983050F00B
:1011B0002BE630E09E3030F02CE630E0963110F037
:1011C00030E020E03093530520935205292F30E082
:1011D000983008F028C181E001C0880F9A95EAF79D
:1011E0008093540580915B0590915C050197F1F720
:1011F0008091590590915A05892B49F1E091FB01A5
:10120000F091FC0125E0EF33F20709F1309739F056
:10121000A389B4899C918589809589238C93809139
:101220005D058E7F80935D051092FA011092F901A1
:101230008FE395E09093FC018093FB01E0915205D0
:10124000F0915305808190915405892B808380E62D
:101250009AEEA0E0B0E08093880390938903A09376
:101260008A03B0938B038093430590934405A09326
:101270004505B09346050E94BA034B015C01A0ED01
:10128000CA2EA7E0DA2EE12CF12C0E94BA036819CD
:1012900079098A099B09683E734081059105A8F385
:1012A00031E0C31AD108E108F10888EE880E83E026
:1012B000981EA11CB11CC114D104E104F10429F74A
:1012C00000E011E0E0E1EE2EE1E0FE2ECC24CA9435
:1012D000D12C2FB7F8948091FD019091FE01A0913F
:1012E000FF01B09100022FBF0E9407100E94021060
:1012F000B6010E947510F80181938F01EE16FF066A
:1013000041F710922304109222042E01FBE44F0EA9
:10131000511C9E012F5E3F4FED963FAF2EAFED97D4
:10132000CE0101964C011E019BE5290E311CD20114
:101330001496C657DF4FB983A883CA58D04060E2DD
:1013400071E084E893E00E94590560E271E083E077
:1013500093E00E94AC1080E1E6E4F1E0A0E1B1E0AE
:1013600001900D928A95E1F7EDB7FEB7CF57DF4FA9
:10137000F983E883C158D04080E190E00E94DC010D
:101380002DB73EB7CD57DF4F39832883C358D040A0
:101390008091220490912304079760F480E290E00A
:1013A00090932F0580932E058EE090E090932D056D
:1013B00080932C05E0902E05F0902F058DB79EB7F9
:1013C0008E199F090FB6F8949EBF0FBE8DBF0DB743
:1013D0001EB70F5F1F4F3801A70163E073E0C8011C
:1013E0000E94A31080912C0590912D05E81AF90A0E
:1013F000AA24AA94B12CC0902E05D0902F058091DC
:10140000220490912304EC14FD040CF04FC08430AE
:101410009105B4F48130910544F5892BF9F0AFEFD3
:10142000EA1AFA0AE8CF9E3040F42850310981E0E8
:1014300001C0880F2A95EAF7D3CE2E503109F7CF95
:1014400085309105E9F0B4F0069749F7E0912C0555
:10145000F0912D05E15DFA4F808102C080912C054D
:10146000F801EE0DFF1D8083DACFF801EE0DFF1DB0
:101470001082D5CFF801EE0DFF1D90E29083CFCF03
:101480002FB7F8948091FD019091FE01A091FF018A
:10149000B09100022FBF0E9407100E940210F801B5
:1014A000EE0DFF1DB5010E947510DDCF8130910555
:1014B00009F0CAC080912C0590912D05F601E81B1A
:1014C000F90B0E0F1F1F80E8D8018C9380E190E08C
:1014D0000E94DC01D7FE03C0BFE0CB0ED11C54E05C
:1014E000D594C7945A95E1F701E012E06BE1E62E3E
:1014F000C114D10409F46DC1B30180E191E00E94EF
:10150000290580912104882309F463C144E254E051
:1015100060E171E0C2010E940205FF24F394809112
:101520002104F81608F09BC09201DE0111964FE0ED
:10153000B42E8AE0C158DF4F8883CF57D04095E062
:10154000EE969FAFEE97F201EE968FADEE97E80F15
:10155000F11D50818C5F8F70EE968FAFEE97F20188
:10156000C158DF4F9881CF57D040E90FF11D6081FE
:10157000892F8C5F8F70C158DF4F8883CF57D04041
:10158000F201EB0DF11D908184E08B0D8F70B82E70
:10159000F9018081E82FF0E0E354FE4F4491E52FFC
:1015A000F0E0E354FE4F5491E62FF0E0E354FE4F99
:1015B0008491E92FF0E0E354FE4F9491F42FFF0F54
:1015C00047FDFE25E52FEE0F57FF04C0652F660F80
:1015D000E62FEE25A82EAA0C87FDAE24792F770FD3
:1015E00097FD7E25652F682769276F276E276C93E7
:1015F000642F682769276E276A2511966C931197C7
:10160000452794279A25972712969C931297482747
:10161000F4277F2713967C9313972C5F3F4F1496E4
:10162000ED968EAD9FADED978A179B0709F08BCF96
:1016300090E1F99EA00111244C5D5B4FB401C20101
:101640000E940205F3946BCF029709F03FCF0C0D77
:101650001D1DF801319780912C05808337CFD20171
:10166000EC91F0E0E354FE4FE491EC931496EC918E
:101670001497F0E0E354FE4FE4911496EC93149722
:101680001896EC911897F0E0E354FE4FE491189609
:10169000EC9318971C96EC911C97F0E0E354FE4FE6
:1016A000E4911C96EC931C9711968C9111971596CA
:1016B000EC911597F0E0E354FE4FE4911196EC9312
:1016C00011971996EC911997F0E0E354FE4FE491CD
:1016D0001596EC9315971D96EC911D97F0E0E35449
:1016E000FE4FE4911996EC931997E82FF0E0E3543C
:1016F000FE4FE4911D96EC931D9712968C911297D4
:101700001A96EC911A97F0E0E354FE4FE49112968A
:10171000EC931297E82FF0E0E354FE4FE4911A9611
:10172000EC931A9716968C9116971E96EC911E972D
:10173000F0E0E354FE4FE4911696EC931697E82FF1
:10174000F0E0E354FE4FE4911E96EC931E971F9633
:101750008C911F971B96EC911B97F0E0E354FE4F82
:10176000E4911F96EC931F971796EC911797F0E072
:10177000E354FE4FE4911B96EC931B971396EC9168
:101780001397F0E0E354FE4FE4911796EC9317970C
:10179000E82FF0E0E354FE4FE4911396EC93B0E1B0
:1017A000FB9EA00111244C5D5B4FB20180E191E0F2
:1017B0000E94020540E160E171E0C8010E94AE01B3
:1017C000E0E16E0E711C005F1F4FF1E0CF1AD108EF
:1017D0008FCECD57DF4F28813981C358D0400FB607
:1017E000F8943EBF0FBE2DBF31E0C32E32E0D32EA2
:1017F00080912E0590912F05DC01AF5FBD4FEF96D4
:10180000BFAFAEAFEF97560110E000E0F12CE12C36
:101810003E01B5E06B0E711CEF96EEADFFADEF979C
:10182000EA15FB0541F1D5012D915D01C701019636
:10183000F201EE0DFF1D208383309105D1F4B2013A
:10184000C4010E94DB04D40183E390E08C0F9D1F50
:10185000800F911FED91F0E0E458FF4F2491FC01BF
:101860002193CF016A167B06A9F70C5F1F4F90E00A
:1018700080E07C01D1CFE114F104C9F1F201EE0D59
:10188000FF1DCF0184199509039714F41192F9CF24
:10189000B201C4010E94DB0483E390E08C0F9D1F22
:1018A000800F911FD401ED91F0E0E458FF4F249197
:1018B000FC012193CF019D0128193909E216F30695
:1018C00094F7C80101968701080F191FE3E3F0E0C0
:1018D000EC0FFD1FE00FF11F2DE3A801481B590B72
:1018E0004330510524F40F5F1F4F2193F6CFE3E3FC
:1018F000F0E0EC0FFD1FE00FF11F1082A801BE0108
:101900006D5C7F4F81E092E00E94A310CF57DF4FC4
:1019100028813981C158D0400FB6F8943EBF0FBE20
:101920002DBF61E072E08FE395E00E94590582E3EC
:10193000D4011D928A95E9F70F5F1D4FF12CE12C20
:10194000B12CA12C0C151D0509F442C0F601219102
:101950006F012D33E9F1C5010196F201EA0DFB1D7E
:1019600020838430910591F552013201F4E06F0E2D
:10197000711CD5018D915D010E949004F501319794
:1019800080836A147B04A9F7B201C1010E94AC04F0
:10199000F401EE0DFF1DD1018C918083E2E0F0E0B7
:1019A000EC0FFD1FEE0DFF1D11968C91119780839A
:1019B000E3E0F0E0EC0FFD1FEE0DFF1D12968C91A1
:1019C0008083B3E0EB0EF11C90E080E05C01BACFC5
:1019D000A114B10481F1F201EA0DFB1D8201CF01D6
:1019E00084199509049714F41192F8CFF8018191A4
:1019F0008F010E949004F80131978083C657DF4F12
:101A000028813981CA58D0402017310779F7B201AF
:101A1000C1010E94AC04D401AE0DBF1DF10131E043
:101A2000A31AB108CF01821993098A159B050CF4FA
:101A300021C2EA0CFB1CF401EE0DFF1D108280E1B7
:101A4000E6E4F1E0A0E1B1E001900D928A95E1F7C2
:101A5000F40101900020E9F73197E819F909F093B2
:101A60002F05E0932E05CF0124E0959587952A95C3
:101A7000E1F7CB57DF4F99838883C558D04080E189
:101A800090E00E94DC01A3E0B3E0CF57DF4FB983C1
:101A9000A883C158D040C158DF4F99828882CF5760
:101AA000D0401BE1CB57DF4FE881F981C558D040CA
:101AB0003197CB57DF4FF983E883C558D040319633
:101AC00009F413C240E1C158DF4F68817981CF57D3
:101AD000D040CE0185599F4F0E94AE014091210414
:101AE000442309F402C230E1439FA00111244C5D5C
:101AF0005B4FC158DF4F68817981CF57D040C1011A
:101B00000E940205D101EC91F0E0E354FF4FE49113
:101B1000EC931496EC911497F0E0E354FF4FE491AA
:101B20001496EC9314971896EC911897F0E0E35400
:101B3000FF4FE4911896EC9318971C96EC911C9724
:101B4000F0E0E354FF4FE4911C96EC931C971D9634
:101B50008C911D971996EC911997F0E0E354FF4F83
:101B6000E4911D96EC931D971596EC911597F0E076
:101B7000E354FF4FE4911996EC9319971196EC9169
:101B80001197F0E0E354FF4FE4911596EC9315970D
:101B9000E82FF0E0E354FF4FE4911196EC93119796
:101BA00012968C9112971A96EC911A97F0E0E354E2
:101BB000FF4FE4911296EC931297E82FF0E0E35474
:101BC000FF4FE4911A96EC931A9716968C911697FC
:101BD0001E96EC911E97F0E0E354FF4FE4911696A9
:101BE000EC931697E82FF0E0E354FF4FE4911E9634
:101BF000EC931E9713968C9113971796EC91179769
:101C0000F0E0E354FF4FE4911396EC9313971B9687
:101C1000EC911B97F0E0E354FF4FE4911796EC939F
:101C200017971F96EC911F97F0E0E354FF4FE49154
:101C30001B96EC931B97E82FF0E0E354FF4FE491E1
:101C40001F96EC93809121048150B0E18B9FC001DD
:101C50001124FC01EF5DFB4FEF96FFAFEEAFEF9766
:101C6000EF962EAD3FADEF9784E02132380709F4AF
:101C700004C1A9014D5F5F4FB101C2010E9402057D
:101C80003201CD57DF4F39822882C358D04085E0DA
:101C9000C82ED12CD3019C9111968C91119712963C
:101CA0003C91129713962C91792F770F97FD7127FE
:101CB000B82FBB0F87FDB127A32FAA0F37FDA12790
:101CC000622F660F27FD6127472F440F77FD4127BD
:101CD000AB2EAA0CB7FF04C05B2F550FA52EA12673
:101CE000FA2EFF0CA7FDF126062F000F67FD012736
:101CF000E42EEE0C47FF04C0542F550FE52EE126CD
:101D00005A2D550FA7FC5127FF2DFF0FF7FCF12788
:101D1000E02FEE0F07FDE127B92EBE24C957DF4F94
:101D2000B882C758D040B82EB526C457DF4FB88206
:101D3000CC58D040B32EBF26C857DF4FB882C85802
:101D4000D040B22EBE26C757DF4FB882C958D04008
:101D50004E255A25FF260E27E32FE727EB27E427FA
:101D6000C457DF4F3881CC58D040E327EF25EB250F
:101D7000F0E0E354FF4F3491CD57DF4FE881F98114
:101D8000C358D0403083E22FEB27EA27C957DF4FF3
:101D9000B880C758D040EB25E527C857DF4F2881CA
:101DA000C858D040E227E027F0E0E354FF4F2491E9
:101DB000F601EF70FF27E20DF31D20839A27962787
:101DC0004927C457DF4FB880CC58D040B426FB24F5
:101DD000C757DF4F9881C958D0409F25E92FF0E0C1
:101DE000E354FF4FE491D6011596AF70BB27A20DC7
:101DF000B31DEC93E82FE727E627C957DF4F38815B
:101E0000C758D040E3275E27C857DF4FE881C8583E
:101E1000D040E5270E27E02FF0E0E354FF4FE49198
:101E2000D6011A96AF70BB27A20DB31DEC9384E0C8
:101E3000680E711CCD57DF4FA881B981C358D040BF
:101E40001496CD57DF4FB983A883C358D040B4E070
:101E5000CB0ED11CE5E1CE16D10409F01BCFEF96D5
:101E60002EAD3FADEF9720513109EF963FAF2EAF2A
:101E7000EF97F6CE81918D93D5CD44E254E0B10138
:101E8000CF57DF4F88819981C158D0400E94020509
:101E900060E171E0CF57DF4F88819981C158D04010
:101EA0000E94290540E1BE0165597F4F80E191E024
:101EB0000E94AE01CF57DF4F88819981C158D04031
:101EC0004096CF57DF4F99838883C158D040C1587F
:101ED000DF4FA881B981CF57D0405096C158DF4F0E
:101EE000B983A883CF57D040DDCD6DE771E084E89A
:101EF00093E00E944A0563E073E084E893E00E9467
:101F0000590563E971E08FE395E00E94590563E9A3
:101F100071E084E893E00E94590580E090E0892B0D
:101F200009F40DCA0E941703882309F408CA0E9405
:101F3000000005CA8CE691E09093400580933F0530
:101F40008091FB019091FC018F53954071F4E091D9
:101F50005205F09153059081809154058095892315
:101F600080831092FC011092FB0108958F929F9242
:101F7000AF92BF92CF92DF92EF92FF92CF93DF9317
:101F8000EC01688179818A819B81611571058105E8
:101F9000910521F464E279ED8BE597E02DE133EFD3
:101FA00041E050E00E94121049015A019B01AC012E
:101FB000A7EAB1E40E9431106B017C01ACEEB4EFF2
:101FC000A50194010E943F10DC01CB018C0D9D1DE9
:101FD000AE1DBF1DB7FF03C00197A109B04888839C
:101FE0009983AA83BB839F77DF91CF91FF90EF9076
:101FF000DF90CF90BF90AF909F908F9008950E94F8
:10200000B60F089582E491E00E94B60F0895B0E003
:10201000A0E08093420190934301A0934401B093C8
:1020200045010895052E97FB1EF400940E94291087
:1020300057FD07D00E94441007FC03D04EF40C94C7
:10204000291050954095309521953F4F4F4F5F4F48
:10205000089590958095709561957F4F8F4F9F4F14
:1020600008950E946610A59F900DB49F900DA49FA7
:10207000800D911D11240895B7FF0C9431100E941A
:102080003110821B930B0895A1E21A2EAA1BBB1BD1
:10209000FD010DC0AA1FBB1FEE1FFF1FA217B30734
:1020A000E407F50720F0A21BB30BE40BF50B661F4A
:1020B000771F881F991F1A9469F76095709580950E
:1020C00090959B01AC01BD01CF010895A29FB00185
:1020D000B39FC001A39F700D811D1124911DB29F5C
:1020E000700D811D1124911D089597FB072E16F484
:1020F000009407D077FD09D00E94891007FC05D015
:102100003EF4909581959F4F0895709561957F4F0E
:102110000895AA1BBB1B51E107C0AA1FBB1FA6172E
:10212000B70710F0A61BB70B881F991F5A95A9F780
:1021300080959095BC01CD010895EE0FFF1F05908D
:10214000F491E02D0994FB01DC0102C001900D9295
:1021500041505040D8F70895FB01DC0101900D92E9
:102160000020E1F7089511E0C3E8D1E004C0FE01CA
:102170000E949D102196C438D107C9F7F894FFCF6B
:10218000AAAAAAAAAAAAAAAAAAAAAAAAAAAAAAAAAF
:10219000AAAAAAAAAAAAAAAAAAAAAAAAAAAAAAAA9F
:1021A000757365726E616D653A70617373776F7286
:1021B00064002B7E151628AED2A6ABF7158809CF82
:1021C0004F3C01000000AAAAAAAAAAAAAAAAAAAADF
:1021D000AAAAAAAAAAAA000000004D03AD02DA0228
:1021E0009A030B03E902FD0200000000F803AD02B0
:1021F0008D04F70354046C04DF030D0A0044656387
:1022000072797074656420636C656172746578744A
:102210003A0A002D2D2D2D2D2D2D2D2D2D2D2D2D31
:102220002D2D2D2D2D2D2D2D2D2D2D2D2D2D2D2DDE
:042230002D2D000050
:00000001FF
